{
  "_format": "hh-sol-artifact-1",
  "contractName": "NFTMarketplace",
  "sourceName": "contracts/NFTMarketplace.sol",
  "abi": [
    {
      "inputs": [],
      "stateMutability": "nonpayable",
      "type": "constructor"
    },
    {
      "anonymous": false,
      "inputs": [
        {
          "indexed": true,
          "internalType": "address",
          "name": "owner",
          "type": "address"
        },
        {
          "indexed": true,
          "internalType": "address",
          "name": "approved",
          "type": "address"
        },
        {
          "indexed": true,
          "internalType": "uint256",
          "name": "tokenId",
          "type": "uint256"
        }
      ],
      "name": "Approval",
      "type": "event"
    },
    {
      "anonymous": false,
      "inputs": [
        {
          "indexed": true,
          "internalType": "address",
          "name": "owner",
          "type": "address"
        },
        {
          "indexed": true,
          "internalType": "address",
          "name": "operator",
          "type": "address"
        },
        {
          "indexed": false,
          "internalType": "bool",
          "name": "approved",
          "type": "bool"
        }
      ],
      "name": "ApprovalForAll",
      "type": "event"
    },
    {
      "anonymous": false,
      "inputs": [
        {
          "indexed": true,
          "internalType": "uint256",
          "name": "tokenId",
          "type": "uint256"
        },
        {
          "indexed": false,
          "internalType": "address",
          "name": "seller",
          "type": "address"
        },
        {
          "indexed": false,
          "internalType": "address",
          "name": "owner",
          "type": "address"
        },
        {
          "indexed": false,
          "internalType": "uint256",
          "name": "price",
          "type": "uint256"
        },
        {
          "indexed": false,
          "internalType": "bool",
          "name": "sold",
          "type": "bool"
        }
      ],
      "name": "MarketItemCreated",
      "type": "event"
    },
    {
      "anonymous": false,
      "inputs": [
        {
          "indexed": true,
          "internalType": "address",
          "name": "from",
          "type": "address"
        },
        {
          "indexed": true,
          "internalType": "address",
          "name": "to",
          "type": "address"
        },
        {
          "indexed": true,
          "internalType": "uint256",
          "name": "tokenId",
          "type": "uint256"
        }
      ],
      "name": "Transfer",
      "type": "event"
    },
    {
      "inputs": [
        {
          "internalType": "address",
          "name": "to",
          "type": "address"
        },
        {
          "internalType": "uint256",
          "name": "tokenId",
          "type": "uint256"
        }
      ],
      "name": "approve",
      "outputs": [],
      "stateMutability": "nonpayable",
      "type": "function"
    },
    {
      "inputs": [
        {
          "internalType": "address",
          "name": "owner",
          "type": "address"
        }
      ],
      "name": "balanceOf",
      "outputs": [
        {
          "internalType": "uint256",
          "name": "",
          "type": "uint256"
        }
      ],
      "stateMutability": "view",
      "type": "function"
    },
    {
      "inputs": [
        {
          "internalType": "uint256",
          "name": "tokenId",
          "type": "uint256"
        }
      ],
      "name": "createMarketSale",
      "outputs": [],
      "stateMutability": "payable",
      "type": "function"
    },
    {
      "inputs": [
        {
          "internalType": "string",
          "name": "tokenURI",
          "type": "string"
        },
        {
          "internalType": "uint256",
          "name": "price",
          "type": "uint256"
        }
      ],
      "name": "createToken",
      "outputs": [
        {
          "internalType": "uint256",
          "name": "",
          "type": "uint256"
        }
      ],
      "stateMutability": "payable",
      "type": "function"
    },
    {
      "inputs": [],
      "name": "fetchItemsListed",
      "outputs": [
        {
          "components": [
            {
              "internalType": "uint256",
              "name": "tokenId",
              "type": "uint256"
            },
            {
              "internalType": "address payable",
              "name": "seller",
              "type": "address"
            },
            {
              "internalType": "address payable",
              "name": "owner",
              "type": "address"
            },
            {
              "internalType": "uint256",
              "name": "price",
              "type": "uint256"
            },
            {
              "internalType": "bool",
              "name": "sold",
              "type": "bool"
            }
          ],
          "internalType": "struct NFTMarketplace.MarketItem[]",
          "name": "",
          "type": "tuple[]"
        }
      ],
      "stateMutability": "view",
      "type": "function"
    },
    {
      "inputs": [],
      "name": "fetchMarketItems",
      "outputs": [
        {
          "components": [
            {
              "internalType": "uint256",
              "name": "tokenId",
              "type": "uint256"
            },
            {
              "internalType": "address payable",
              "name": "seller",
              "type": "address"
            },
            {
              "internalType": "address payable",
              "name": "owner",
              "type": "address"
            },
            {
              "internalType": "uint256",
              "name": "price",
              "type": "uint256"
            },
            {
              "internalType": "bool",
              "name": "sold",
              "type": "bool"
            }
          ],
          "internalType": "struct NFTMarketplace.MarketItem[]",
          "name": "",
          "type": "tuple[]"
        }
      ],
      "stateMutability": "view",
      "type": "function"
    },
    {
      "inputs": [],
      "name": "fetchMyItems",
      "outputs": [
        {
          "components": [
            {
              "internalType": "uint256",
              "name": "tokenId",
              "type": "uint256"
            },
            {
              "internalType": "address payable",
              "name": "seller",
              "type": "address"
            },
            {
              "internalType": "address payable",
              "name": "owner",
              "type": "address"
            },
            {
              "internalType": "uint256",
              "name": "price",
              "type": "uint256"
            },
            {
              "internalType": "bool",
              "name": "sold",
              "type": "bool"
            }
          ],
          "internalType": "struct NFTMarketplace.MarketItem[]",
          "name": "",
          "type": "tuple[]"
        }
      ],
      "stateMutability": "view",
      "type": "function"
    },
    {
      "inputs": [
        {
          "internalType": "uint256",
          "name": "tokenId",
          "type": "uint256"
        }
      ],
      "name": "getApproved",
      "outputs": [
        {
          "internalType": "address",
          "name": "",
          "type": "address"
        }
      ],
      "stateMutability": "view",
      "type": "function"
    },
    {
      "inputs": [],
      "name": "getListingPrice",
      "outputs": [
        {
          "internalType": "uint256",
          "name": "",
          "type": "uint256"
        }
      ],
      "stateMutability": "view",
      "type": "function"
    },
    {
      "inputs": [],
      "name": "getOwnerCommissionPercentage",
      "outputs": [
        {
          "internalType": "uint256",
          "name": "",
          "type": "uint256"
        }
      ],
      "stateMutability": "view",
      "type": "function"
    },
    {
      "inputs": [
        {
          "internalType": "address",
          "name": "owner",
          "type": "address"
        },
        {
          "internalType": "address",
          "name": "operator",
          "type": "address"
        }
      ],
      "name": "isApprovedForAll",
      "outputs": [
        {
          "internalType": "bool",
          "name": "",
          "type": "bool"
        }
      ],
      "stateMutability": "view",
      "type": "function"
    },
    {
      "inputs": [],
      "name": "name",
      "outputs": [
        {
          "internalType": "string",
          "name": "",
          "type": "string"
        }
      ],
      "stateMutability": "view",
      "type": "function"
    },
    {
      "inputs": [
        {
          "internalType": "uint256",
          "name": "tokenId",
          "type": "uint256"
        }
      ],
      "name": "ownerOf",
      "outputs": [
        {
          "internalType": "address",
          "name": "",
          "type": "address"
        }
      ],
      "stateMutability": "view",
      "type": "function"
    },
    {
      "inputs": [
        {
          "internalType": "uint256",
          "name": "tokenId",
          "type": "uint256"
        },
        {
          "internalType": "uint256",
          "name": "price",
          "type": "uint256"
        }
      ],
      "name": "resellToken",
      "outputs": [],
      "stateMutability": "payable",
      "type": "function"
    },
    {
      "inputs": [
        {
          "internalType": "address",
          "name": "from",
          "type": "address"
        },
        {
          "internalType": "address",
          "name": "to",
          "type": "address"
        },
        {
          "internalType": "uint256",
          "name": "tokenId",
          "type": "uint256"
        }
      ],
      "name": "safeTransferFrom",
      "outputs": [],
      "stateMutability": "nonpayable",
      "type": "function"
    },
    {
      "inputs": [
        {
          "internalType": "address",
          "name": "from",
          "type": "address"
        },
        {
          "internalType": "address",
          "name": "to",
          "type": "address"
        },
        {
          "internalType": "uint256",
          "name": "tokenId",
          "type": "uint256"
        },
        {
          "internalType": "bytes",
          "name": "data",
          "type": "bytes"
        }
      ],
      "name": "safeTransferFrom",
      "outputs": [],
      "stateMutability": "nonpayable",
      "type": "function"
    },
    {
      "inputs": [
        {
          "internalType": "address",
          "name": "operator",
          "type": "address"
        },
        {
          "internalType": "bool",
          "name": "approved",
          "type": "bool"
        }
      ],
      "name": "setApprovalForAll",
      "outputs": [],
      "stateMutability": "nonpayable",
      "type": "function"
    },
    {
      "inputs": [
        {
          "internalType": "bytes4",
          "name": "interfaceId",
          "type": "bytes4"
        }
      ],
      "name": "supportsInterface",
      "outputs": [
        {
          "internalType": "bool",
          "name": "",
          "type": "bool"
        }
      ],
      "stateMutability": "view",
      "type": "function"
    },
    {
      "inputs": [],
      "name": "symbol",
      "outputs": [
        {
          "internalType": "string",
          "name": "",
          "type": "string"
        }
      ],
      "stateMutability": "view",
      "type": "function"
    },
    {
      "inputs": [
        {
          "internalType": "uint256",
          "name": "tokenId",
          "type": "uint256"
        }
      ],
      "name": "tokenURI",
      "outputs": [
        {
          "internalType": "string",
          "name": "",
          "type": "string"
        }
      ],
      "stateMutability": "view",
      "type": "function"
    },
    {
      "inputs": [
        {
          "internalType": "address",
          "name": "from",
          "type": "address"
        },
        {
          "internalType": "address",
          "name": "to",
          "type": "address"
        },
        {
          "internalType": "uint256",
          "name": "tokenId",
          "type": "uint256"
        }
      ],
      "name": "transferFrom",
      "outputs": [],
      "stateMutability": "nonpayable",
      "type": "function"
    },
    {
      "inputs": [
        {
          "internalType": "uint256",
          "name": "_listingPrice",
          "type": "uint256"
        }
      ],
      "name": "updateListingPrice",
      "outputs": [],
      "stateMutability": "payable",
      "type": "function"
    },
    {
      "inputs": [
        {
          "internalType": "uint256",
          "name": "_ownerCommissionPercentage",
          "type": "uint256"
        }
      ],
      "name": "updateOwnerCommissionPercentage",
      "outputs": [],
      "stateMutability": "payable",
      "type": "function"
    }
  ],
  "bytecode": "0x6080604052670de0b6b3a7640000600955600f600a55600a546103e8620000279190620001cf565b600b553480156200003757600080fd5b506040518060400160405280600781526020017f41727462797465000000000000000000000000000000000000000000000000008152506040518060400160405280600381526020017f41525400000000000000000000000000000000000000000000000000000000008152508160009080519060200190620000bc9291906200011f565b508060019080519060200190620000d59291906200011f565b50505033600c60006101000a81548173ffffffffffffffffffffffffffffffffffffffff021916908373ffffffffffffffffffffffffffffffffffffffff160217905550620002a8565b8280546200012d9062000214565b90600052602060002090601f0160209004810192826200015157600085556200019d565b82601f106200016c57805160ff19168380011785556200019d565b828001600101855582156200019d579182015b828111156200019c5782518255916020019190600101906200017f565b5b509050620001ac9190620001b0565b5090565b5b80821115620001cb576000816000905550600101620001b1565b5090565b6000620001dc826200020a565b9150620001e9836200020a565b925082821015620001ff57620001fe6200024a565b5b828203905092915050565b6000819050919050565b600060028204905060018216806200022d57607f821691505b6020821081141562000244576200024362000279565b5b50919050565b7f4e487b7100000000000000000000000000000000000000000000000000000000600052601160045260246000fd5b7f4e487b7100000000000000000000000000000000000000000000000000000000600052602260045260246000fd5b61425580620002b86000396000f3fe6080604052600436106101405760003560e01c80636352211e116100b6578063b88d4fde1161006f578063b88d4fde14610447578063be9af53614610470578063c87b56dd1461048c578063e219fc75146104c9578063e985e9c5146104e5578063f060a4471461052257610140565b80636352211e1461032d57806370a082311461036a57806372b3b620146103a757806395d89b41146103d7578063a22cb46514610402578063ae677aa31461042b57610140565b806312e855851161010857806312e855851461023e57806315c9ae101461026957806323b872dd146102945780633ff7abca146102bd57806342842e0e146102d957806345f8fa801461030257610140565b806301ffc9a71461014557806306fdde0314610182578063081812fc146101ad578063095ea7b3146101ea5780630f08efe014610213575b600080fd5b34801561015157600080fd5b5061016c60048036038101906101679190612fa9565b61054d565b60405161017991906135f7565b60405180910390f35b34801561018e57600080fd5b5061019761062f565b6040516101a49190613612565b60405180910390f35b3480156101b957600080fd5b506101d460048036038101906101cf919061304f565b6106c1565b6040516101e19190613529565b60405180910390f35b3480156101f657600080fd5b50610211600480360381019061020c9190612f6d565b610707565b005b34801561021f57600080fd5b5061022861081f565b60405161023591906135d5565b60405180910390f35b34801561024a57600080fd5b50610253610ad4565b6040516102609190613874565b60405180910390f35b34801561027557600080fd5b5061027e610ade565b60405161028b91906135d5565b60405180910390f35b3480156102a057600080fd5b506102bb60048036038101906102b69190612e67565b610e18565b005b6102d760048036038101906102d2919061304f565b610e78565b005b3480156102e557600080fd5b5061030060048036038101906102fb9190612e67565b610f12565b005b34801561030e57600080fd5b50610317610f32565b60405161032491906135d5565b60405180910390f35b34801561033957600080fd5b50610354600480360381019061034f919061304f565b61126c565b6040516103619190613529565b60405180910390f35b34801561037657600080fd5b50610391600480360381019061038c9190612e02565b61131e565b60405161039e9190613874565b60405180910390f35b6103c160048036038101906103bc9190612ffb565b6113d6565b6040516103ce9190613874565b60405180910390f35b3480156103e357600080fd5b506103ec611418565b6040516103f99190613612565b60405180910390f35b34801561040e57600080fd5b5061042960048036038101906104249190612f31565b6114aa565b005b6104456004803603810190610440919061304f565b6114c0565b005b34801561045357600080fd5b5061046e60048036038101906104699190612eb6565b61155a565b005b61048a6004803603810190610485919061304f565b6115bc565b005b34801561049857600080fd5b506104b360048036038101906104ae919061304f565b611873565b6040516104c09190613612565b60405180910390f35b6104e360048036038101906104de9190613078565b611986565b005b3480156104f157600080fd5b5061050c60048036038101906105079190612e2b565b611b7b565b60405161051991906135f7565b60405180910390f35b34801561052e57600080fd5b50610537611c0f565b6040516105449190613874565b60405180910390f35b60007f80ac58cd000000000000000000000000000000000000000000000000000000007bffffffffffffffffffffffffffffffffffffffffffffffffffffffff1916827bffffffffffffffffffffffffffffffffffffffffffffffffffffffff1916148061061857507f5b5e139f000000000000000000000000000000000000000000000000000000007bffffffffffffffffffffffffffffffffffffffffffffffffffffffff1916827bffffffffffffffffffffffffffffffffffffffffffffffffffffffff1916145b80610628575061062782611c19565b5b9050919050565b60606000805461063e90613b6f565b80601f016020809104026020016040519081016040528092919081815260200182805461066a90613b6f565b80156106b75780601f1061068c576101008083540402835291602001916106b7565b820191906000526020600020905b81548152906001019060200180831161069a57829003601f168201915b5050505050905090565b60006106cc82611c83565b6004600083815260200190815260200160002060009054906101000a900473ffffffffffffffffffffffffffffffffffffffff169050919050565b60006107128261126c565b90508073ffffffffffffffffffffffffffffffffffffffff168373ffffffffffffffffffffffffffffffffffffffff161415610783576040517f08c379a000000000000000000000000000000000000000000000000000000000815260040161077a906137d4565b60405180910390fd5b8073ffffffffffffffffffffffffffffffffffffffff166107a2611cce565b73ffffffffffffffffffffffffffffffffffffffff1614806107d157506107d0816107cb611cce565b611b7b565b5b610810576040517f08c379a000000000000000000000000000000000000000000000000000000000815260040161080790613754565b60405180910390fd5b61081a8383611cd6565b505050565b6060600061082d6007611d8f565b9050600061083b6008611d8f565b6108456007611d8f565b61084f9190613a73565b90506000808267ffffffffffffffff811115610894577f4e487b7100000000000000000000000000000000000000000000000000000000600052604160045260246000fd5b6040519080825280602002602001820160405280156108cd57816020015b6108ba612bc9565b8152602001906001900390816108b25790505b50905060005b84811015610ac9573073ffffffffffffffffffffffffffffffffffffffff16600d60006001846109039190613992565b815260200190815260200160002060020160009054906101000a900473ffffffffffffffffffffffffffffffffffffffff1673ffffffffffffffffffffffffffffffffffffffff161415610ab65760006001826109609190613992565b90506000600d60008381526020019081526020016000209050806040518060a0016040529081600082015481526020016001820160009054906101000a900473ffffffffffffffffffffffffffffffffffffffff1673ffffffffffffffffffffffffffffffffffffffff1673ffffffffffffffffffffffffffffffffffffffff1681526020016002820160009054906101000a900473ffffffffffffffffffffffffffffffffffffffff1673ffffffffffffffffffffffffffffffffffffffff1673ffffffffffffffffffffffffffffffffffffffff168152602001600382015481526020016004820160009054906101000a900460ff161515151581525050848681518110610a99577f4e487b7100000000000000000000000000000000000000000000000000000000600052603260045260246000fd5b6020026020010181905250600185610ab19190613992565b945050505b8080610ac190613bd2565b9150506108d3565b508094505050505090565b6000600954905090565b60606000610aec6007611d8f565b905060008060005b83811015610b95573373ffffffffffffffffffffffffffffffffffffffff16600d6000600184610b249190613992565b815260200190815260200160002060020160009054906101000a900473ffffffffffffffffffffffffffffffffffffffff1673ffffffffffffffffffffffffffffffffffffffff161415610b8257600183610b7f9190613992565b92505b8080610b8d90613bd2565b915050610af4565b5060008267ffffffffffffffff811115610bd8577f4e487b7100000000000000000000000000000000000000000000000000000000600052604160045260246000fd5b604051908082528060200260200182016040528015610c1157816020015b610bfe612bc9565b815260200190600190039081610bf65790505b50905060005b84811015610e0d573373ffffffffffffffffffffffffffffffffffffffff16600d6000600184610c479190613992565b815260200190815260200160002060020160009054906101000a900473ffffffffffffffffffffffffffffffffffffffff1673ffffffffffffffffffffffffffffffffffffffff161415610dfa576000600182610ca49190613992565b90506000600d60008381526020019081526020016000209050806040518060a0016040529081600082015481526020016001820160009054906101000a900473ffffffffffffffffffffffffffffffffffffffff1673ffffffffffffffffffffffffffffffffffffffff1673ffffffffffffffffffffffffffffffffffffffff1681526020016002820160009054906101000a900473ffffffffffffffffffffffffffffffffffffffff1673ffffffffffffffffffffffffffffffffffffffff1673ffffffffffffffffffffffffffffffffffffffff168152602001600382015481526020016004820160009054906101000a900460ff161515151581525050848681518110610ddd577f4e487b7100000000000000000000000000000000000000000000000000000000600052603260045260246000fd5b6020026020010181905250600185610df59190613992565b945050505b8080610e0590613bd2565b915050610c17565b508094505050505090565b610e29610e23611cce565b82611d9d565b610e68576040517f08c379a0000000000000000000000000000000000000000000000000000000008152600401610e5f90613834565b60405180910390fd5b610e73838383611e32565b505050565b3373ffffffffffffffffffffffffffffffffffffffff16600c60009054906101000a900473ffffffffffffffffffffffffffffffffffffffff1673ffffffffffffffffffffffffffffffffffffffff1614610f08576040517f08c379a0000000000000000000000000000000000000000000000000000000008152600401610eff906136b4565b60405180910390fd5b80600a8190555050565b610f2d8383836040518060200160405280600081525061155a565b505050565b60606000610f406007611d8f565b905060008060005b83811015610fe9573373ffffffffffffffffffffffffffffffffffffffff16600d6000600184610f789190613992565b815260200190815260200160002060010160009054906101000a900473ffffffffffffffffffffffffffffffffffffffff1673ffffffffffffffffffffffffffffffffffffffff161415610fd657600183610fd39190613992565b92505b8080610fe190613bd2565b915050610f48565b5060008267ffffffffffffffff81111561102c577f4e487b7100000000000000000000000000000000000000000000000000000000600052604160045260246000fd5b60405190808252806020026020018201604052801561106557816020015b611052612bc9565b81526020019060019003908161104a5790505b50905060005b84811015611261573373ffffffffffffffffffffffffffffffffffffffff16600d600060018461109b9190613992565b815260200190815260200160002060010160009054906101000a900473ffffffffffffffffffffffffffffffffffffffff1673ffffffffffffffffffffffffffffffffffffffff16141561124e5760006001826110f89190613992565b90506000600d60008381526020019081526020016000209050806040518060a0016040529081600082015481526020016001820160009054906101000a900473ffffffffffffffffffffffffffffffffffffffff1673ffffffffffffffffffffffffffffffffffffffff1673ffffffffffffffffffffffffffffffffffffffff1681526020016002820160009054906101000a900473ffffffffffffffffffffffffffffffffffffffff1673ffffffffffffffffffffffffffffffffffffffff1673ffffffffffffffffffffffffffffffffffffffff168152602001600382015481526020016004820160009054906101000a900460ff161515151581525050848681518110611231577f4e487b7100000000000000000000000000000000000000000000000000000000600052603260045260246000fd5b60200260200101819052506001856112499190613992565b945050505b808061125990613bd2565b91505061106b565b508094505050505090565b6000806002600084815260200190815260200160002060009054906101000a900473ffffffffffffffffffffffffffffffffffffffff169050600073ffffffffffffffffffffffffffffffffffffffff168173ffffffffffffffffffffffffffffffffffffffff161415611315576040517f08c379a000000000000000000000000000000000000000000000000000000000815260040161130c906137b4565b60405180910390fd5b80915050919050565b60008073ffffffffffffffffffffffffffffffffffffffff168273ffffffffffffffffffffffffffffffffffffffff16141561138f576040517f08c379a000000000000000000000000000000000000000000000000000000000815260040161138690613714565b60405180910390fd5b600360008373ffffffffffffffffffffffffffffffffffffffff1673ffffffffffffffffffffffffffffffffffffffff168152602001908152602001600020549050919050565b60006113e26007612099565b60006113ee6007611d8f565b90506113fa33826120af565b6114048185612289565b61140e81846122fd565b8091505092915050565b60606001805461142790613b6f565b80601f016020809104026020016040519081016040528092919081815260200182805461145390613b6f565b80156114a05780601f10611475576101008083540402835291602001916114a0565b820191906000526020600020905b81548152906001019060200180831161148357829003601f168201915b5050505050905090565b6114bc6114b5611cce565b8383612500565b5050565b3373ffffffffffffffffffffffffffffffffffffffff16600c60009054906101000a900473ffffffffffffffffffffffffffffffffffffffff1673ffffffffffffffffffffffffffffffffffffffff1614611550576040517f08c379a0000000000000000000000000000000000000000000000000000000008152600401611547906136b4565b60405180910390fd5b8060098190555050565b61156b611565611cce565b83611d9d565b6115aa576040517f08c379a00000000000000000000000000000000000000000000000000000000081526004016115a190613834565b60405180910390fd5b6115b68484848461266d565b50505050565b6000600d60008381526020019081526020016000206003015490506000600d600084815260200190815260200160002060010160009054906101000a900473ffffffffffffffffffffffffffffffffffffffff169050813414611654576040517f08c379a000000000000000000000000000000000000000000000000000000000815260040161164b90613854565b60405180910390fd5b33600d600085815260200190815260200160002060020160006101000a81548173ffffffffffffffffffffffffffffffffffffffff021916908373ffffffffffffffffffffffffffffffffffffffff1602179055506001600d600085815260200190815260200160002060040160006101000a81548160ff0219169083151502179055506000600d600085815260200190815260200160002060010160006101000a81548173ffffffffffffffffffffffffffffffffffffffff021916908373ffffffffffffffffffffffffffffffffffffffff1602179055506117386008612099565b611743303385611e32565b600c60009054906101000a900473ffffffffffffffffffffffffffffffffffffffff1673ffffffffffffffffffffffffffffffffffffffff166108fc6009549081150290604051600060405180830381858888f193505050501580156117ad573d6000803e3d6000fd5b50600c60009054906101000a900473ffffffffffffffffffffffffffffffffffffffff1673ffffffffffffffffffffffffffffffffffffffff166108fc6117f3346126c9565b9081150290604051600060405180830381858888f1935050505015801561181e573d6000803e3d6000fd5b508073ffffffffffffffffffffffffffffffffffffffff166108fc611842346126ed565b9081150290604051600060405180830381858888f1935050505015801561186d573d6000803e3d6000fd5b50505050565b606061187e82611c83565b600060066000848152602001908152602001600020805461189e90613b6f565b80601f01602080910402602001604051908101604052809291908181526020018280546118ca90613b6f565b80156119175780601f106118ec57610100808354040283529160200191611917565b820191906000526020600020905b8154815290600101906020018083116118fa57829003601f168201915b505050505090506000611928612711565b905060008151141561193e578192505050611981565b60008251111561197357808260405160200161195b929190613505565b60405160208183030381529060405292505050611981565b61197c84612728565b925050505b919050565b3373ffffffffffffffffffffffffffffffffffffffff16600d600084815260200190815260200160002060020160009054906101000a900473ffffffffffffffffffffffffffffffffffffffff1673ffffffffffffffffffffffffffffffffffffffff1614611a2a576040517f08c379a0000000000000000000000000000000000000000000000000000000008152600401611a2190613814565b60405180910390fd5b6009543414611a6e576040517f08c379a0000000000000000000000000000000000000000000000000000000008152600401611a65906137f4565b60405180910390fd5b6000600d600084815260200190815260200160002060040160006101000a81548160ff02191690831515021790555080600d60008481526020019081526020016000206003018190555033600d600084815260200190815260200160002060010160006101000a81548173ffffffffffffffffffffffffffffffffffffffff021916908373ffffffffffffffffffffffffffffffffffffffff16021790555030600d600084815260200190815260200160002060020160006101000a81548173ffffffffffffffffffffffffffffffffffffffff021916908373ffffffffffffffffffffffffffffffffffffffff160217905550611b6c6008612790565b611b77333084611e32565b5050565b6000600560008473ffffffffffffffffffffffffffffffffffffffff1673ffffffffffffffffffffffffffffffffffffffff16815260200190815260200160002060008373ffffffffffffffffffffffffffffffffffffffff1673ffffffffffffffffffffffffffffffffffffffff16815260200190815260200160002060009054906101000a900460ff16905092915050565b6000600a54905090565b60007f01ffc9a7000000000000000000000000000000000000000000000000000000007bffffffffffffffffffffffffffffffffffffffffffffffffffffffff1916827bffffffffffffffffffffffffffffffffffffffffffffffffffffffff1916149050919050565b611c8c816127ec565b611ccb576040517f08c379a0000000000000000000000000000000000000000000000000000000008152600401611cc2906137b4565b60405180910390fd5b50565b600033905090565b816004600083815260200190815260200160002060006101000a81548173ffffffffffffffffffffffffffffffffffffffff021916908373ffffffffffffffffffffffffffffffffffffffff160217905550808273ffffffffffffffffffffffffffffffffffffffff16611d498361126c565b73ffffffffffffffffffffffffffffffffffffffff167f8c5be1e5ebec7d5bd14f71427d1e84f3dd0314c0f7b2291e5b200ac8c7c3b92560405160405180910390a45050565b600081600001549050919050565b600080611da98361126c565b90508073ffffffffffffffffffffffffffffffffffffffff168473ffffffffffffffffffffffffffffffffffffffff161480611deb5750611dea8185611b7b565b5b80611e2957508373ffffffffffffffffffffffffffffffffffffffff16611e11846106c1565b73ffffffffffffffffffffffffffffffffffffffff16145b91505092915050565b8273ffffffffffffffffffffffffffffffffffffffff16611e528261126c565b73ffffffffffffffffffffffffffffffffffffffff1614611ea8576040517f08c379a0000000000000000000000000000000000000000000000000000000008152600401611e9f90613674565b60405180910390fd5b600073ffffffffffffffffffffffffffffffffffffffff168273ffffffffffffffffffffffffffffffffffffffff161415611f18576040517f08c379a0000000000000000000000000000000000000000000000000000000008152600401611f0f906136d4565b60405180910390fd5b611f23838383612858565b611f2e600082611cd6565b6001600360008573ffffffffffffffffffffffffffffffffffffffff1673ffffffffffffffffffffffffffffffffffffffff1681526020019081526020016000206000828254611f7e9190613a73565b925050819055506001600360008473ffffffffffffffffffffffffffffffffffffffff1673ffffffffffffffffffffffffffffffffffffffff1681526020019081526020016000206000828254611fd59190613992565b92505081905550816002600083815260200190815260200160002060006101000a81548173ffffffffffffffffffffffffffffffffffffffff021916908373ffffffffffffffffffffffffffffffffffffffff160217905550808273ffffffffffffffffffffffffffffffffffffffff168473ffffffffffffffffffffffffffffffffffffffff167fddf252ad1be2c89b69c2b068fc378daa952ba7f163c4a11628f55a4df523b3ef60405160405180910390a461209483838361285d565b505050565b6001816000016000828254019250508190555050565b600073ffffffffffffffffffffffffffffffffffffffff168273ffffffffffffffffffffffffffffffffffffffff16141561211f576040517f08c379a000000000000000000000000000000000000000000000000000000000815260040161211690613774565b60405180910390fd5b612128816127ec565b15612168576040517f08c379a000000000000000000000000000000000000000000000000000000000815260040161215f90613694565b60405180910390fd5b61217460008383612858565b6001600360008473ffffffffffffffffffffffffffffffffffffffff1673ffffffffffffffffffffffffffffffffffffffff16815260200190815260200160002060008282546121c49190613992565b92505081905550816002600083815260200190815260200160002060006101000a81548173ffffffffffffffffffffffffffffffffffffffff021916908373ffffffffffffffffffffffffffffffffffffffff160217905550808273ffffffffffffffffffffffffffffffffffffffff16600073ffffffffffffffffffffffffffffffffffffffff167fddf252ad1be2c89b69c2b068fc378daa952ba7f163c4a11628f55a4df523b3ef60405160405180910390a46122856000838361285d565b5050565b612292826127ec565b6122d1576040517f08c379a00000000000000000000000000000000000000000000000000000000081526004016122c890613734565b60405180910390fd5b806006600084815260200190815260200160002090805190602001906122f8929190612c26565b505050565b60008111612340576040517f08c379a000000000000000000000000000000000000000000000000000000000815260040161233790613794565b60405180910390fd5b6009543414612384576040517f08c379a000000000000000000000000000000000000000000000000000000000815260040161237b906137f4565b60405180910390fd5b6040518060a001604052808381526020013373ffffffffffffffffffffffffffffffffffffffff1681526020013073ffffffffffffffffffffffffffffffffffffffff16815260200182815260200160001515815250600d60008481526020019081526020016000206000820151816000015560208201518160010160006101000a81548173ffffffffffffffffffffffffffffffffffffffff021916908373ffffffffffffffffffffffffffffffffffffffff16021790555060408201518160020160006101000a81548173ffffffffffffffffffffffffffffffffffffffff021916908373ffffffffffffffffffffffffffffffffffffffff1602179055506060820151816003015560808201518160040160006101000a81548160ff0219169083151502179055509050506124bd333084611e32565b817fb640004f1d14576d0c209e240cad0410e0d8c0c33a09375861fbadae2588a98d33308460006040516124f49493929190613544565b60405180910390a25050565b8173ffffffffffffffffffffffffffffffffffffffff168373ffffffffffffffffffffffffffffffffffffffff16141561256f576040517f08c379a0000000000000000000000000000000000000000000000000000000008152600401612566906136f4565b60405180910390fd5b80600560008573ffffffffffffffffffffffffffffffffffffffff1673ffffffffffffffffffffffffffffffffffffffff16815260200190815260200160002060008473ffffffffffffffffffffffffffffffffffffffff1673ffffffffffffffffffffffffffffffffffffffff16815260200190815260200160002060006101000a81548160ff0219169083151502179055508173ffffffffffffffffffffffffffffffffffffffff168373ffffffffffffffffffffffffffffffffffffffff167f17307eab39ab6107e8899845ad3d59bd9653f200f220920489ca2b5937696c318360405161266091906135f7565b60405180910390a3505050565b612678848484611e32565b61268484848484612862565b6126c3576040517f08c379a00000000000000000000000000000000000000000000000000000000081526004016126ba90613654565b60405180910390fd5b50505050565b6000600a546103e8836126dc91906139e8565b6126e69190613a19565b9050919050565b6000600b546103e88361270091906139e8565b61270a9190613a19565b9050919050565b606060405180602001604052806000815250905090565b606061273382611c83565b600061273d612711565b9050600081511161275d5760405180602001604052806000815250612788565b80612767846129f9565b604051602001612778929190613505565b6040516020818303038152906040525b915050919050565b600081600001549050600081116127dc576040517f08c379a00000000000000000000000000000000000000000000000000000000081526004016127d390613634565b60405180910390fd5b6001810382600001819055505050565b60008073ffffffffffffffffffffffffffffffffffffffff166002600084815260200190815260200160002060009054906101000a900473ffffffffffffffffffffffffffffffffffffffff1673ffffffffffffffffffffffffffffffffffffffff1614159050919050565b505050565b505050565b60006128838473ffffffffffffffffffffffffffffffffffffffff16612ba6565b156129ec578373ffffffffffffffffffffffffffffffffffffffff1663150b7a026128ac611cce565b8786866040518563ffffffff1660e01b81526004016128ce9493929190613589565b602060405180830381600087803b1580156128e857600080fd5b505af192505050801561291957506040513d601f19601f820116820180604052508101906129169190612fd2565b60015b61299c573d8060008114612949576040519150601f19603f3d011682016040523d82523d6000602084013e61294e565b606091505b50600081511415612994576040517f08c379a000000000000000000000000000000000000000000000000000000000815260040161298b90613654565b60405180910390fd5b805181602001fd5b63150b7a0260e01b7bffffffffffffffffffffffffffffffffffffffffffffffffffffffff1916817bffffffffffffffffffffffffffffffffffffffffffffffffffffffff1916149150506129f1565b600190505b949350505050565b60606000821415612a41576040518060400160405280600181526020017f30000000000000000000000000000000000000000000000000000000000000008152509050612ba1565b600082905060005b60008214612a73578080612a5c90613bd2565b915050600a82612a6c91906139e8565b9150612a49565b60008167ffffffffffffffff811115612ab5577f4e487b7100000000000000000000000000000000000000000000000000000000600052604160045260246000fd5b6040519080825280601f01601f191660200182016040528015612ae75781602001600182028036833780820191505090505b5090505b60008514612b9a57600182612b009190613a73565b9150600a85612b0f9190613c1b565b6030612b1b9190613992565b60f81b818381518110612b57577f4e487b7100000000000000000000000000000000000000000000000000000000600052603260045260246000fd5b60200101907effffffffffffffffffffffffffffffffffffffffffffffffffffffffffffff1916908160001a905350600a85612b9391906139e8565b9450612aeb565b8093505050505b919050565b6000808273ffffffffffffffffffffffffffffffffffffffff163b119050919050565b6040518060a0016040528060008152602001600073ffffffffffffffffffffffffffffffffffffffff168152602001600073ffffffffffffffffffffffffffffffffffffffff168152602001600081526020016000151581525090565b828054612c3290613b6f565b90600052602060002090601f016020900481019282612c545760008555612c9b565b82601f10612c6d57805160ff1916838001178555612c9b565b82800160010185558215612c9b579182015b82811115612c9a578251825591602001919060010190612c7f565b5b509050612ca89190612cac565b5090565b5b80821115612cc5576000816000905550600101612cad565b5090565b6000612cdc612cd7846138b4565b61388f565b905082815260208101848484011115612cf457600080fd5b612cff848285613b2d565b509392505050565b6000612d1a612d15846138e5565b61388f565b905082815260208101848484011115612d3257600080fd5b612d3d848285613b2d565b509392505050565b600081359050612d54816141c3565b92915050565b600081359050612d69816141da565b92915050565b600081359050612d7e816141f1565b92915050565b600081519050612d93816141f1565b92915050565b600082601f830112612daa57600080fd5b8135612dba848260208601612cc9565b91505092915050565b600082601f830112612dd457600080fd5b8135612de4848260208601612d07565b91505092915050565b600081359050612dfc81614208565b92915050565b600060208284031215612e1457600080fd5b6000612e2284828501612d45565b91505092915050565b60008060408385031215612e3e57600080fd5b6000612e4c85828601612d45565b9250506020612e5d85828601612d45565b9150509250929050565b600080600060608486031215612e7c57600080fd5b6000612e8a86828701612d45565b9350506020612e9b86828701612d45565b9250506040612eac86828701612ded565b9150509250925092565b60008060008060808587031215612ecc57600080fd5b6000612eda87828801612d45565b9450506020612eeb87828801612d45565b9350506040612efc87828801612ded565b925050606085013567ffffffffffffffff811115612f1957600080fd5b612f2587828801612d99565b91505092959194509250565b60008060408385031215612f4457600080fd5b6000612f5285828601612d45565b9250506020612f6385828601612d5a565b9150509250929050565b60008060408385031215612f8057600080fd5b6000612f8e85828601612d45565b9250506020612f9f85828601612ded565b9150509250929050565b600060208284031215612fbb57600080fd5b6000612fc984828501612d6f565b91505092915050565b600060208284031215612fe457600080fd5b6000612ff284828501612d84565b91505092915050565b6000806040838503121561300e57600080fd5b600083013567ffffffffffffffff81111561302857600080fd5b61303485828601612dc3565b925050602061304585828601612ded565b9150509250929050565b60006020828403121561306157600080fd5b600061306f84828501612ded565b91505092915050565b6000806040838503121561308b57600080fd5b600061309985828601612ded565b92505060206130aa85828601612ded565b9150509250929050565b60006130c0838361347f565b60a08301905092915050565b6130d581613ab9565b82525050565b6130e481613aa7565b82525050565b60006130f582613926565b6130ff8185613954565b935061310a83613916565b8060005b8381101561313b57815161312288826130b4565b975061312d83613947565b92505060018101905061310e565b5085935050505092915050565b61315181613acb565b82525050565b61316081613acb565b82525050565b600061317182613931565b61317b8185613965565b935061318b818560208601613b3c565b61319481613d08565b840191505092915050565b60006131aa8261393c565b6131b48185613976565b93506131c4818560208601613b3c565b6131cd81613d08565b840191505092915050565b60006131e38261393c565b6131ed8185613987565b93506131fd818560208601613b3c565b80840191505092915050565b6000613216601b83613976565b915061322182613d19565b602082019050919050565b6000613239603283613976565b915061324482613d42565b604082019050919050565b600061325c602583613976565b915061326782613d91565b604082019050919050565b600061327f601c83613976565b915061328a82613de0565b602082019050919050565b60006132a2603383613976565b91506132ad82613e09565b604082019050919050565b60006132c5602483613976565b91506132d082613e58565b604082019050919050565b60006132e8601983613976565b91506132f382613ea7565b602082019050919050565b600061330b602983613976565b915061331682613ed0565b604082019050919050565b600061332e602e83613976565b915061333982613f1f565b604082019050919050565b6000613351603e83613976565b915061335c82613f6e565b604082019050919050565b6000613374602083613976565b915061337f82613fbd565b602082019050919050565b6000613397601883613976565b91506133a282613fe6565b602082019050919050565b60006133ba601883613976565b91506133c58261400f565b602082019050919050565b60006133dd602183613976565b91506133e882614038565b604082019050919050565b6000613400602483613976565b915061340b82614087565b604082019050919050565b6000613423602a83613976565b915061342e826140d6565b604082019050919050565b6000613446602e83613976565b915061345182614125565b604082019050919050565b6000613469603783613976565b915061347482614174565b604082019050919050565b60a08201600082015161349560008501826134e7565b5060208201516134a860208501826130cc565b5060408201516134bb60408501826130cc565b5060608201516134ce60608501826134e7565b5060808201516134e16080850182613148565b50505050565b6134f081613b23565b82525050565b6134ff81613b23565b82525050565b600061351182856131d8565b915061351d82846131d8565b91508190509392505050565b600060208201905061353e60008301846130db565b92915050565b600060808201905061355960008301876130db565b61356660208301866130db565b61357360408301856134f6565b6135806060830184613157565b95945050505050565b600060808201905061359e60008301876130db565b6135ab60208301866130db565b6135b860408301856134f6565b81810360608301526135ca8184613166565b905095945050505050565b600060208201905081810360008301526135ef81846130ea565b905092915050565b600060208201905061360c6000830184613157565b92915050565b6000602082019050818103600083015261362c818461319f565b905092915050565b6000602082019050818103600083015261364d81613209565b9050919050565b6000602082019050818103600083015261366d8161322c565b9050919050565b6000602082019050818103600083015261368d8161324f565b9050919050565b600060208201905081810360008301526136ad81613272565b9050919050565b600060208201905081810360008301526136cd81613295565b9050919050565b600060208201905081810360008301526136ed816132b8565b9050919050565b6000602082019050818103600083015261370d816132db565b9050919050565b6000602082019050818103600083015261372d816132fe565b9050919050565b6000602082019050818103600083015261374d81613321565b9050919050565b6000602082019050818103600083015261376d81613344565b9050919050565b6000602082019050818103600083015261378d81613367565b9050919050565b600060208201905081810360008301526137ad8161338a565b9050919050565b600060208201905081810360008301526137cd816133ad565b9050919050565b600060208201905081810360008301526137ed816133d0565b9050919050565b6000602082019050818103600083015261380d816133f3565b9050919050565b6000602082019050818103600083015261382d81613416565b9050919050565b6000602082019050818103600083015261384d81613439565b9050919050565b6000602082019050818103600083015261386d8161345c565b9050919050565b600060208201905061388960008301846134f6565b92915050565b60006138996138aa565b90506138a58282613ba1565b919050565b6000604051905090565b600067ffffffffffffffff8211156138cf576138ce613cd9565b5b6138d882613d08565b9050602081019050919050565b600067ffffffffffffffff821115613900576138ff613cd9565b5b61390982613d08565b9050602081019050919050565b6000819050602082019050919050565b600081519050919050565b600081519050919050565b600081519050919050565b6000602082019050919050565b600082825260208201905092915050565b600082825260208201905092915050565b600082825260208201905092915050565b600081905092915050565b600061399d82613b23565b91506139a883613b23565b9250827fffffffffffffffffffffffffffffffffffffffffffffffffffffffffffffffff038211156139dd576139dc613c4c565b5b828201905092915050565b60006139f382613b23565b91506139fe83613b23565b925082613a0e57613a0d613c7b565b5b828204905092915050565b6000613a2482613b23565b9150613a2f83613b23565b9250817fffffffffffffffffffffffffffffffffffffffffffffffffffffffffffffffff0483118215151615613a6857613a67613c4c565b5b828202905092915050565b6000613a7e82613b23565b9150613a8983613b23565b925082821015613a9c57613a9b613c4c565b5b828203905092915050565b6000613ab282613b03565b9050919050565b6000613ac482613b03565b9050919050565b60008115159050919050565b60007fffffffff0000000000000000000000000000000000000000000000000000000082169050919050565b600073ffffffffffffffffffffffffffffffffffffffff82169050919050565b6000819050919050565b82818337600083830152505050565b60005b83811015613b5a578082015181840152602081019050613b3f565b83811115613b69576000848401525b50505050565b60006002820490506001821680613b8757607f821691505b60208210811415613b9b57613b9a613caa565b5b50919050565b613baa82613d08565b810181811067ffffffffffffffff82111715613bc957613bc8613cd9565b5b80604052505050565b6000613bdd82613b23565b91507fffffffffffffffffffffffffffffffffffffffffffffffffffffffffffffffff821415613c1057613c0f613c4c565b5b600182019050919050565b6000613c2682613b23565b9150613c3183613b23565b925082613c4157613c40613c7b565b5b828206905092915050565b7f4e487b7100000000000000000000000000000000000000000000000000000000600052601160045260246000fd5b7f4e487b7100000000000000000000000000000000000000000000000000000000600052601260045260246000fd5b7f4e487b7100000000000000000000000000000000000000000000000000000000600052602260045260246000fd5b7f4e487b7100000000000000000000000000000000000000000000000000000000600052604160045260246000fd5b6000601f19601f8301169050919050565b7f436f756e7465723a2064656372656d656e74206f766572666c6f770000000000600082015250565b7f4552433732313a207472616e7366657220746f206e6f6e20455243373231526560008201527f63656976657220696d706c656d656e7465720000000000000000000000000000602082015250565b7f4552433732313a207472616e736665722066726f6d20696e636f72726563742060008201527f6f776e6572000000000000000000000000000000000000000000000000000000602082015250565b7f4552433732313a20746f6b656e20616c7265616479206d696e74656400000000600082015250565b7f4f6e6c79206d61726b6574706c616365206f776e65722063616e20757064617460008201527f6520746865206c697374696e6720707269636500000000000000000000000000602082015250565b7f4552433732313a207472616e7366657220746f20746865207a65726f2061646460008201527f7265737300000000000000000000000000000000000000000000000000000000602082015250565b7f4552433732313a20617070726f766520746f2063616c6c657200000000000000600082015250565b7f4552433732313a2061646472657373207a65726f206973206e6f74206120766160008201527f6c6964206f776e65720000000000000000000000000000000000000000000000602082015250565b7f45524337323155524953746f726167653a2055524920736574206f66206e6f6e60008201527f6578697374656e7420746f6b656e000000000000000000000000000000000000602082015250565b7f4552433732313a20617070726f76652063616c6c6572206973206e6f7420746f60008201527f6b656e206f776e6572206e6f7220617070726f76656420666f7220616c6c0000602082015250565b7f4552433732313a206d696e7420746f20746865207a65726f2061646472657373600082015250565b7f5072696365206d757374206265206174206c6561737420310000000000000000600082015250565b7f4552433732313a20696e76616c696420746f6b656e2049440000000000000000600082015250565b7f4552433732313a20617070726f76616c20746f2063757272656e74206f776e6560008201527f7200000000000000000000000000000000000000000000000000000000000000602082015250565b7f5072696365206d75737420626520657175616c20746f206c697374696e67207060008201527f7269636500000000000000000000000000000000000000000000000000000000602082015250565b7f4f6e6c79204974656d204f776e65722063616e20706572666f726d207468697360008201527f206f7065726174696f6e00000000000000000000000000000000000000000000602082015250565b7f4552433732313a2063616c6c6572206973206e6f7420746f6b656e206f776e6560008201527f72206e6f7220617070726f766564000000000000000000000000000000000000602082015250565b7f506c65617365207375626d6974207468652061736b696e67207072696365207460008201527f6f20636f6d706c65746520746865207075726368617365000000000000000000602082015250565b6141cc81613aa7565b81146141d757600080fd5b50565b6141e381613acb565b81146141ee57600080fd5b50565b6141fa81613ad7565b811461420557600080fd5b50565b61421181613b23565b811461421c57600080fd5b5056fea26469706673582212201bc77e4be2152f404e7698d261bdf7a19da3bc388693e7acc6ea1f037fbd68d264736f6c63430008040033",
  "linkReferences": {},
  "deployedLinkReferences": {}
}